:100000000C945D000C9485000C9485000C94850084
:100010000C9485000C9485000C9485000C9485004C
:100020000C9485000C9485000C9485000C9485003C
:100030000C9485000C9485000C9485000C9485002C
:100040000C9439020C9485000C9485000C94850066
:100050000C9485000C9485000C9485000C9485000C
:100060000C9485000C9485000000000024002700FB
:100070002A0000000000250028002B0004040404CE
:100080000404040402020202020203030303030342
:10009000010204081020408001020408102001021F
:1000A00004081020000000080002010000030407FB
:1000B0000000000000000000E70311241FBECFEF86
:1000C000D8E0DEBFCDBF11E0A0E0B1E0E6E9FEE0A0
:1000D00002C005900D92AC30B107D9F721E0ACE039
:1000E000B1E001C01D92AB31B207E1F710E0CDE500
:1000F000D0E004C02197FE010E941106CC35D10743
:10010000C9F70E9483020C9449070C94000090E008
:10011000FC01EC55FF4F3491FC01E057FF4F249157
:10012000FC01E458FF4FE491EE2309F43BC0332374
:1001300039F1333091F038F43130A9F0323001F533
:1001400084B58F7D12C0373091F03830A1F0343053
:10015000B9F4809180008F7D03C0809180008F77FB
:10016000809380000DC084B58F7784BD09C08091D5
:10017000B0008F7703C08091B0008F7D8093B00076
:10018000F0E0EE0FFF1FEE58FF4FA591B4918FB72F
:10019000F894EC91611103C020952E2301C02E2B01
:1001A0002C938FBF0895482F50E0FA01E057FF4F7E
:1001B0009491FA01E458FF4F2491222399F030E002
:1001C000220F331FF901E859FF4FA591B491F901AE
:1001D000EE58FF4F259134912FB7F894EC91E92B0D
:1001E000EC932FBF6115710511F460E004C06F3FFF
:1001F000710519F461E00C948700FA01EC55FF4F8A
:10020000E491E330F9F048F4E130B9F0E230A1F5DF
:1002100084B5806284BD68BD0895E730E9F0E830B8
:1002200019F1E43049F5809180008062809380006C
:1002300070938B0060938A00089584B5806884BDB4
:1002400067BD0895809180008068809380007093DE
:1002500089006093880008958091B0008068809341
:10026000B0006093B30008958091B00080628093E5
:10027000B0006093B4000895603871050CF0BACFF7
:10028000B4CF3FB7F8948091130190911401A091DD
:100290001501B091160126B5A89B05C02F3F19F096
:1002A0000196A11DB11D3FBFBA2FA92F982F8827F6
:1002B000820F911DA11DB11DBC01CD0142E0660F51
:1002C000771F881F991F4A95D1F708958F929F92A3
:1002D000AF92BF92CF92DF92EF92FF926B017C01BF
:1002E0000E9441014B015C01C114D104E104F104FD
:1002F000F1F00E944101DC01CB0188199909AA099A
:10030000BB09883E9340A105B10570F321E0C21AF4
:10031000D108E108F10888EE880E83E0981EA11C40
:10032000B11CC114D104E104F10419F7DDCFFF9031
:10033000EF90DF90CF90BF90AF909F908F900895F7
:100340008F929F92AF92BF92CF92DF92EF92FF92E5
:100350000F931F93CF93DF93EC017B018A01FB0185
:1003600080809180A280B38020E030E0A901C501A7
:10037000B4010E947B0587FD0AC0C501B4010E943B
:10038000F4048E810E94D30060E070E00FC060E052
:1003900070E08E810E94D300F70180819181A2815B
:1003A000B381BC01CD0190580E94F40488850E945D
:1003B000D300F801C080D180E280F38020E030E0FB
:1003C000A901C701B6010E947B0587FD0AC0C701CC
:1003D000B6010E94F4048A810E94D30060E070E0BC
:1003E0000FC060E070E08A810E94D300F801808134
:1003F0009181A281B381BC01CD0190580E94F40487
:100400008C81DF91CF911F910F91FF90EF90DF9042
:10041000CF90BF90AF909F908F900C94D300CF93CC
:10042000DF93CDB7DEB728970FB6F894DEBF0FBEC7
:10043000CDBFDC01ED91FC910190F081E02D1D829A
:100440001E821F82188619821A821B821C82AE01AC
:100450004B5F5F4FBE016F5F7F4F099528960FB6C8
:10046000F894DEBF0FBECDBFDF91CF9108950E94FB
:1004700044071F920F920FB60F9211242F933F93B0
:100480008F939F93AF93BF9380910F019091100131
:10049000A0911101B091120130910E0123E0230FC0
:1004A0002D3720F40196A11DB11D05C026E8230FAC
:1004B0000296A11DB11D20930E0180930F01909310
:1004C0001001A0931101B09312018091130190913A
:1004D0001401A0911501B09116010196A11DB11D45
:1004E0008093130190931401A0931501B09316010A
:1004F000BF91AF919F918F913F912F910F900FBE20
:100500000F901F901895CF93DF93CDB7DEB7289744
:100510000FB6F894DEBF0FBECDBF789484B582606D
:1005200084BD84B5816084BD85B5826085BD85B597
:10053000816085BD80916E00816080936E00109215
:100540008100809181008260809381008091810090
:100550008160809381008091800081608093800021
:100560008091B10084608093B1008091B00081607F
:100570008093B00080917A00846080937A008091AB
:100580007A00826080937A0080917A008160809303
:100590007A0080917A00806880937A001092C1007E
:1005A00080E0282E80E0382E80E090E0AFE7B3E4D2
:1005B00089839A83AB83BC8300910C0110910D0158
:1005C000D801ED91FC910190F081E02DAE014F5FDB
:1005D0005F4FBA01C801099520E030E048EC52E4D1
:1005E00069817A818B819C810E94820420E030E0C5
:1005F0004AE754E40E9480050E94FB040E946601C1
:10060000C8010E940F0200910C0110910D01D80148
:10061000ED91FC910190F081E02D80E090E0AFE75A
:10062000B3EC8D839E83AF83B88789839A83AB8332
:10063000BC83AE014B5F5F4FBE016F5F7F4FC80150
:10064000099566EF79E080E090E00E946601C801BC
:100650000E940F0200910C0110910D01D8011A9611
:100660004D905D906D907C901D9720E030E0A90149
:10067000C301B2010E9416044B015C019B01AC0155
:1006800060E070E088EC93E40E9482046B017C01DE
:10069000A301920160E070E0CB010E9415049B0170
:1006A000AC01C701B6010E9480056D837E838F83F4
:1006B0009887A5019401C701B6010E94800569834E
:1006C0007A838B839C83D801ED91FC910190F0811A
:1006D000E02DAE014F5F5F4FBE016B5F7F4FC801E2
:1006E0000995A70196016BED7FE089EC90E40E94EB
:1006F000820420E030E04AE754E40E9480050E9432
:10070000FB040E946601C8010E940F0200910C01C7
:1007100010910D01F80182849384A484B58420E0B3
:1007200030E040EA51E4C501B4010E9416049B0187
:10073000AC0160E070E088EC93E40E9482046B01FD
:100740007C0120E030E040E251E40E9480056D83AE
:100750007E838F83988720E030E040E251E4C5013A
:10076000B4010E9416049B01AC01C701B6010E94AE
:10077000800569837A838B839C83D801ED91FC91FA
:100780000190F081E02DAE014F5F5F4FBE016B5FC6
:100790007F4FC8010995A70196016BED7FE089ECB9
:1007A00090E40E94820420E030E04AE754E40E9492
:1007B00080050E94FB040E946601C8010E940F028E
:1007C0002114310409F4F0CE0E940000EDCE82E144
:1007D00090E00E941706FC0189E090E093838283F9
:1007E00088E090E0958384838AE090E09783868315
:1007F0008BE090E09187808780E090E0A0EAB1E410
:1008000082879387A487B58783EC95EFA8E4B0E44B
:1008100086879787A08BB18B8AE091E09183808354
:10082000F0930D01E0930C0108955058BB27AA27BF
:100830000E942D040C9441050E94330538F00E945B
:100840003A0520F039F49F3F19F426F40C94300552
:100850000EF4E095E7FB0C942A05E92F0E9452055F
:1008600058F3BA17620773078407950720F079F4E5
:10087000A6F50C9474050EF4E0950B2EBA2FA02D5E
:100880000B01B90190010C01CA01A0011124FF273D
:10089000591B99F0593F50F4503E68F11A16F04038
:1008A000A22F232F342F4427585FF3CF4695379537
:1008B0002795A795F0405395C9F77EF41F16BA0BFC
:1008C000620B730B840BBAF09150A1F0FF0FBB1FAA
:1008D000661F771F881FC2F70EC0BA0F621F731FF3
:1008E000841F48F4879577956795B795F7959E3F50
:1008F00008F0B0CF9395880F08F09927EE0F9795E1
:10090000879508950E9496040C9441050E943A052B
:1009100058F00E94330540F029F45F3F29F00C9411
:100920002A0551110C9475050C9430050E9452054E
:1009300068F39923B1F3552391F3951B550BBB270E
:10094000AA2762177307840738F09F5F5F4F220F53
:10095000331F441FAA1FA9F335D00E2E3AF0E0E84A
:1009600032D091505040E695001CCAF72BD0FE2F94
:1009700029D0660F771F881FBB1F26173707480728
:10098000AB07B0E809F0BB0B802DBF01FF279358E0
:100990005F4F3AF09E3F510578F00C942A050C9475
:1009A00075055F3FE4F3983ED4F386957795679598
:1009B000B795F7959F5FC9F7880F911D9695879515
:1009C00097F90895E1E0660F771F881FBB1F621734
:1009D00073078407BA0720F0621B730B840BBA0BF2
:1009E000EE1F88F7E09508950E94FB046894B1110A
:1009F0000C94750508950E945A0588F09F5798F049
:100A0000B92F9927B751B0F0E1F0660F771F881F13
:100A1000991F1AF0BA95C9F714C0B13091F00E942D
:100A20007405B1E008950C947405672F782F88271A
:100A3000B85F39F0B93FCCF3869577956795B39554
:100A4000D9F73EF490958095709561957F4F8F4FC3
:100A50009F4F089597F99F6780E870E060E00895E0
:100A60009FEF80EC089500240A94161617061806C6
:100A70000906089500240A941216130614060506A2
:100A80000895092E0394000C11F4882352F0BB0F33
:100A900040F4BF2B11F460FF04C06F5F7F4F8F4F96
:100AA0009F4F089557FD9058440F551F59F05F3FD1
:100AB00071F04795880F97FB991F61F09F3F79F080
:100AC00087950895121613061406551FF2CF469502
:100AD000F1DF08C0161617061806991FF1CF869584
:100AE0007105610508940895E894BB276627772768
:100AF000CB0197F908950E94ED0508F48FEF089552
:100B00000E9493050C9441050E94330538F00E9421
:100B10003A0520F0952311F00C942A050C94300529
:100B200011240C9475050E94520570F3959FC1F332
:100B3000950F50E0551F629FF001729FBB27F00D8B
:100B4000B11D639FAA27F00DB11DAA1F649F6627E0
:100B5000B00DA11D661F829F2227B00DA11D621F2F
:100B6000739FB00DA11D621F839FA00D611D221FE9
:100B7000749F3327A00D611D231F849F600D211DCD
:100B8000822F762F6A2F11249F5750409AF0F1F050
:100B900088234AF0EE0FFF1FBB1F661F771F881FB9
:100BA00091505040A9F79E3F510580F00C942A05C2
:100BB0000C9475055F3FE4F3983ED4F386957795E2
:100BC0006795B795F795E7959F5FC1F7FE2B880F5F
:100BD000911D9695879597F90895990F0008550FDF
:100BE000AA0BE0E8FEEF16161706E807F907C0F0B3
:100BF00012161306E407F50798F0621B730B840BBB
:100C0000950B39F40A2661F0232B242B252B21F494
:100C100008950A2609F4A140A6958FEF811D811D34
:100C20000895EE0FFF1F0590F491E02D0994CF93E6
:100C3000DF938230910510F482E090E0E091190199
:100C4000F0911A0120E030E0C0E0D0E0309711F1DF
:100C50004081518148175907C0F04817590761F47E
:100C600082819381209719F09B838A832BC0909374
:100C70001A018093190126C02115310519F0421778
:100C8000530718F49A01BE01DF01EF010280F381DE
:100C9000E02DDCCF2115310509F1281B390B24305B
:100CA000310590F412968D919C9113976115710501
:100CB00021F0FB019383828304C090931A018093F7
:100CC0001901FD01329644C0FD01E20FF31F81932B
:100CD0009193225031092D933C933AC020911701F2
:100CE00030911801232B41F420910201309103012E
:100CF00030931801209317012091000130910101D8
:100D00002115310541F42DB73EB7409104015091B2
:100D10000501241B350BE0911701F0911801E21732
:100D2000F307A0F42E1B3F0B2817390778F0AC010E
:100D30004E5F5F4F2417350748F04E0F5F1F5093EB
:100D40001801409317018193919302C0E0E0F0E015
:100D5000CF01DF91CF9108950F931F93CF93DF932E
:100D6000009709F48CC0FC01329713821282009123
:100D7000190110911A010115110581F420813181A9
:100D8000820F931F209117013091180128173907FE
:100D900079F5F0931801E093170171C0D80140E094
:100DA00050E0AE17BF0750F412962D913C91139767
:100DB000AD012115310509F1D901F3CF9D01DA010A
:100DC0003383228360817181860F971F8217930777
:100DD00069F4EC0128813981260F371F2E5F3F4FC0
:100DE000318320838A819B8193838283452B29F4DD
:100DF000F0931A01E093190142C01396FC93EE930D
:100E00001297ED01499159919E01240F351FE21768
:100E1000F30771F480819181840F951F02961196DA
:100E20009C938E938281938113969C938E931297B9
:100E3000E0E0F0E0D80112968D919C911397009715
:100E400019F0F8018C01F6CF8D919C9198012E5FDD
:100E50003F4F820F931F20911701309118012817DF
:100E6000390769F4309729F410921A011092190188
:100E700002C0138212821093180100931701DF91B0
:100E8000CF911F910F91089581E090E0F8940C9418
:060E90004907F894FFCFB2
:0C0E960000001B01800000000000A00113
:00000001FF
